{
  "_format": "hh-sol-artifact-1",
  "contractName": "AirdropFarmingPool",
  "sourceName": "contracts/AirdropFarmingPool.sol",
  "abi": [
    {
      "inputs": [
        {
          "internalType": "contract IERC20",
          "name": "_acceptedToken",
          "type": "address"
        },
        {
          "internalType": "contract IERC721",
          "name": "_acceptedLP",
          "type": "address"
        },
        {
          "internalType": "uint256",
          "name": "_baseRate",
          "type": "uint256"
        },
        {
          "internalType": "uint256",
          "name": "_timeLockedMultiplier",
          "type": "uint256"
        },
        {
          "internalType": "uint256",
          "name": "_donationMultiplier",
          "type": "uint256"
        },
        {
          "internalType": "address",
          "name": "_admin",
          "type": "address"
        }
      ],
      "stateMutability": "nonpayable",
      "type": "constructor"
    },
    {
      "inputs": [
        {
          "internalType": "address",
          "name": "owner",
          "type": "address"
        }
      ],
      "name": "OwnableInvalidOwner",
      "type": "error"
    },
    {
      "inputs": [
        {
          "internalType": "address",
          "name": "account",
          "type": "address"
        }
      ],
      "name": "OwnableUnauthorizedAccount",
      "type": "error"
    },
    {
      "inputs": [],
      "name": "ReentrancyGuardReentrantCall",
      "type": "error"
    },
    {
      "anonymous": false,
      "inputs": [
        {
          "indexed": false,
          "internalType": "uint256",
          "name": "timeLockedMultiplier",
          "type": "uint256"
        },
        {
          "indexed": false,
          "internalType": "uint256",
          "name": "donationMultiplier",
          "type": "uint256"
        }
      ],
      "name": "BoostParametersUpdated",
      "type": "event"
    },
    {
      "anonymous": false,
      "inputs": [
        {
          "indexed": false,
          "internalType": "bool",
          "name": "launched",
          "type": "bool"
        }
      ],
      "name": "MainnetLaunched",
      "type": "event"
    },
    {
      "anonymous": false,
      "inputs": [
        {
          "indexed": true,
          "internalType": "address",
          "name": "previousOwner",
          "type": "address"
        },
        {
          "indexed": true,
          "internalType": "address",
          "name": "newOwner",
          "type": "address"
        }
      ],
      "name": "OwnershipTransferred",
      "type": "event"
    },
    {
      "anonymous": false,
      "inputs": [],
      "name": "PoolPaused",
      "type": "event"
    },
    {
      "anonymous": false,
      "inputs": [],
      "name": "PoolResumed",
      "type": "event"
    },
    {
      "anonymous": false,
      "inputs": [
        {
          "indexed": true,
          "internalType": "address",
          "name": "user",
          "type": "address"
        },
        {
          "indexed": false,
          "internalType": "uint256",
          "name": "newCredits",
          "type": "uint256"
        }
      ],
      "name": "TokensBoosted",
      "type": "event"
    },
    {
      "anonymous": false,
      "inputs": [
        {
          "indexed": true,
          "internalType": "address",
          "name": "user",
          "type": "address"
        },
        {
          "indexed": false,
          "internalType": "uint256",
          "name": "amount",
          "type": "uint256"
        },
        {
          "indexed": false,
          "internalType": "uint256",
          "name": "lockType",
          "type": "uint256"
        }
      ],
      "name": "TokensLocked",
      "type": "event"
    },
    {
      "anonymous": false,
      "inputs": [
        {
          "indexed": true,
          "internalType": "address",
          "name": "user",
          "type": "address"
        },
        {
          "indexed": false,
          "internalType": "uint256",
          "name": "amount",
          "type": "uint256"
        }
      ],
      "name": "TokensWithdrawn",
      "type": "event"
    },
    {
      "inputs": [],
      "name": "acceptedLP",
      "outputs": [
        {
          "internalType": "contract IERC721",
          "name": "",
          "type": "address"
        }
      ],
      "stateMutability": "view",
      "type": "function"
    },
    {
      "inputs": [],
      "name": "acceptedToken",
      "outputs": [
        {
          "internalType": "contract IERC20",
          "name": "",
          "type": "address"
        }
      ],
      "stateMutability": "view",
      "type": "function"
    },
    {
      "inputs": [],
      "name": "baseRate",
      "outputs": [
        {
          "internalType": "uint256",
          "name": "",
          "type": "uint256"
        }
      ],
      "stateMutability": "view",
      "type": "function"
    },
    {
      "inputs": [],
      "name": "boostAirdrop",
      "outputs": [],
      "stateMutability": "nonpayable",
      "type": "function"
    },
    {
      "inputs": [],
      "name": "donationMultiplier",
      "outputs": [
        {
          "internalType": "uint256",
          "name": "",
          "type": "uint256"
        }
      ],
      "stateMutability": "view",
      "type": "function"
    },
    {
      "inputs": [],
      "name": "getTotalLockedTokens",
      "outputs": [
        {
          "internalType": "uint256",
          "name": "totalLocked",
          "type": "uint256"
        }
      ],
      "stateMutability": "view",
      "type": "function"
    },
    {
      "inputs": [
        {
          "internalType": "address",
          "name": "user",
          "type": "address"
        }
      ],
      "name": "getUserLockedTokens",
      "outputs": [
        {
          "internalType": "uint256",
          "name": "",
          "type": "uint256"
        }
      ],
      "stateMutability": "view",
      "type": "function"
    },
    {
      "inputs": [],
      "name": "kycMultiplier",
      "outputs": [
        {
          "internalType": "uint256",
          "name": "",
          "type": "uint256"
        }
      ],
      "stateMutability": "view",
      "type": "function"
    },
    {
      "inputs": [
        {
          "internalType": "uint256",
          "name": "amount",
          "type": "uint256"
        },
        {
          "internalType": "uint256",
          "name": "lockType",
          "type": "uint256"
        }
      ],
      "name": "lockTokens",
      "outputs": [],
      "stateMutability": "nonpayable",
      "type": "function"
    },
    {
      "inputs": [
        {
          "internalType": "address",
          "name": "",
          "type": "address"
        }
      ],
      "name": "lockedTokens",
      "outputs": [
        {
          "internalType": "uint256",
          "name": "amount",
          "type": "uint256"
        },
        {
          "internalType": "uint256",
          "name": "lockType",
          "type": "uint256"
        },
        {
          "internalType": "bool",
          "name": "boostedDonation",
          "type": "bool"
        },
        {
          "internalType": "uint256",
          "name": "lastUpdatedTime",
          "type": "uint256"
        },
        {
          "internalType": "uint256",
          "name": "cumulativeCredits",
          "type": "uint256"
        },
        {
          "internalType": "uint256",
          "name": "referralMultiplier",
          "type": "uint256"
        }
      ],
      "stateMutability": "view",
      "type": "function"
    },
    {
      "inputs": [],
      "name": "mainnetLaunchMultiplier",
      "outputs": [
        {
          "internalType": "uint256",
          "name": "",
          "type": "uint256"
        }
      ],
      "stateMutability": "view",
      "type": "function"
    },
    {
      "inputs": [],
      "name": "mainnetLaunched",
      "outputs": [
        {
          "internalType": "bool",
          "name": "",
          "type": "bool"
        }
      ],
      "stateMutability": "view",
      "type": "function"
    },
    {
      "inputs": [],
      "name": "owner",
      "outputs": [
        {
          "internalType": "address",
          "name": "",
          "type": "address"
        }
      ],
      "stateMutability": "view",
      "type": "function"
    },
    {
      "inputs": [],
      "name": "pause",
      "outputs": [],
      "stateMutability": "nonpayable",
      "type": "function"
    },
    {
      "inputs": [],
      "name": "paused",
      "outputs": [
        {
          "internalType": "bool",
          "name": "",
          "type": "bool"
        }
      ],
      "stateMutability": "view",
      "type": "function"
    },
    {
      "inputs": [],
      "name": "referralMultiplier",
      "outputs": [
        {
          "internalType": "uint256",
          "name": "",
          "type": "uint256"
        }
      ],
      "stateMutability": "view",
      "type": "function"
    },
    {
      "inputs": [],
      "name": "renounceOwnership",
      "outputs": [],
      "stateMutability": "nonpayable",
      "type": "function"
    },
    {
      "inputs": [
        {
          "internalType": "address",
          "name": "tokenAddress",
          "type": "address"
        },
        {
          "internalType": "uint256",
          "name": "amount",
          "type": "uint256"
        }
      ],
      "name": "rescueERC20",
      "outputs": [],
      "stateMutability": "nonpayable",
      "type": "function"
    },
    {
      "inputs": [
        {
          "internalType": "uint256",
          "name": "amount",
          "type": "uint256"
        }
      ],
      "name": "rescueNative",
      "outputs": [],
      "stateMutability": "nonpayable",
      "type": "function"
    },
    {
      "inputs": [],
      "name": "resume",
      "outputs": [],
      "stateMutability": "nonpayable",
      "type": "function"
    },
    {
      "inputs": [
        {
          "internalType": "bool",
          "name": "_launched",
          "type": "bool"
        }
      ],
      "name": "setMainnetLaunched",
      "outputs": [],
      "stateMutability": "nonpayable",
      "type": "function"
    },
    {
      "inputs": [],
      "name": "timeLockedMultiplier",
      "outputs": [
        {
          "internalType": "uint256",
          "name": "",
          "type": "uint256"
        }
      ],
      "stateMutability": "view",
      "type": "function"
    },
    {
      "inputs": [],
      "name": "totalCredits",
      "outputs": [
        {
          "internalType": "uint256",
          "name": "",
          "type": "uint256"
        }
      ],
      "stateMutability": "view",
      "type": "function"
    },
    {
      "inputs": [
        {
          "internalType": "address",
          "name": "newOwner",
          "type": "address"
        }
      ],
      "name": "transferOwnership",
      "outputs": [],
      "stateMutability": "nonpayable",
      "type": "function"
    },
    {
      "inputs": [
        {
          "internalType": "uint256",
          "name": "_baseRate",
          "type": "uint256"
        },
        {
          "internalType": "uint256",
          "name": "_timeLockedMultiplier",
          "type": "uint256"
        },
        {
          "internalType": "uint256",
          "name": "_donationMultiplier",
          "type": "uint256"
        }
      ],
      "name": "updateGlobalBoostParameters",
      "outputs": [],
      "stateMutability": "nonpayable",
      "type": "function"
    },
    {
      "inputs": [
        {
          "internalType": "address",
          "name": "user",
          "type": "address"
        },
        {
          "internalType": "uint256",
          "name": "referralRate",
          "type": "uint256"
        }
      ],
      "name": "updateReferralMultiplier",
      "outputs": [],
      "stateMutability": "nonpayable",
      "type": "function"
    },
    {
      "inputs": [
        {
          "internalType": "uint256",
          "name": "",
          "type": "uint256"
        }
      ],
      "name": "usersList",
      "outputs": [
        {
          "internalType": "address",
          "name": "",
          "type": "address"
        }
      ],
      "stateMutability": "view",
      "type": "function"
    },
    {
      "inputs": [
        {
          "internalType": "address",
          "name": "user",
          "type": "address"
        }
      ],
      "name": "viewCredits",
      "outputs": [
        {
          "internalType": "uint256",
          "name": "",
          "type": "uint256"
        }
      ],
      "stateMutability": "view",
      "type": "function"
    },
    {
      "inputs": [],
      "name": "withdrawTokens",
      "outputs": [],
      "stateMutability": "nonpayable",
      "type": "function"
    },
    {
      "stateMutability": "payable",
      "type": "receive"
    }
  ],
  "bytecode": "0x608060405234801561001057600080fd5b5060405161273538038061273583398181016040528101906100329190610352565b80600073ffffffffffffffffffffffffffffffffffffffff168173ffffffffffffffffffffffffffffffffffffffff16036100a55760006040517f1e4fbdf700000000000000000000000000000000000000000000000000000000815260040161009c91906103ee565b60405180910390fd5b6100b48161017960201b60201c565b506001808190555085600260006101000a81548173ffffffffffffffffffffffffffffffffffffffff021916908373ffffffffffffffffffffffffffffffffffffffff16021790555084600360006101000a81548173ffffffffffffffffffffffffffffffffffffffff021916908373ffffffffffffffffffffffffffffffffffffffff1602179055508360048190555082600581905550816006819055506000600a60006101000a81548160ff021916908315150217905550505050505050610409565b60008060009054906101000a900473ffffffffffffffffffffffffffffffffffffffff169050816000806101000a81548173ffffffffffffffffffffffffffffffffffffffff021916908373ffffffffffffffffffffffffffffffffffffffff1602179055508173ffffffffffffffffffffffffffffffffffffffff168173ffffffffffffffffffffffffffffffffffffffff167f8be0079c531659141344cd1fd0a4f28419497f9722a3daafe3b4186f6b6457e060405160405180910390a35050565b600080fd5b600073ffffffffffffffffffffffffffffffffffffffff82169050919050565b600061026d82610242565b9050919050565b600061027f82610262565b9050919050565b61028f81610274565b811461029a57600080fd5b50565b6000815190506102ac81610286565b92915050565b60006102bd82610262565b9050919050565b6102cd816102b2565b81146102d857600080fd5b50565b6000815190506102ea816102c4565b92915050565b6000819050919050565b610303816102f0565b811461030e57600080fd5b50565b600081519050610320816102fa565b92915050565b61032f81610262565b811461033a57600080fd5b50565b60008151905061034c81610326565b92915050565b60008060008060008060c0878903121561036f5761036e61023d565b5b600061037d89828a0161029d565b965050602061038e89828a016102db565b955050604061039f89828a01610311565b94505060606103b089828a01610311565b93505060806103c189828a01610311565b92505060a06103d289828a0161033d565b9150509295509295509295565b6103e881610262565b82525050565b600060208201905061040360008301846103df565b92915050565b61231d806104186000396000f3fe6080604052600436106101c65760003560e01c80639579fad7116100f7578063b8f1347911610095578063e1d6d76911610064578063e1d6d769146105d2578063e88f8ebd146105fd578063ef26f3521461063a578063f2fde38b14610663576101cd565b8063b8f134791461052a578063bb9526d314610555578063db681f641461057e578063de1896c3146105a7576101cd565b8063a9730552116100d1578063a973055214610492578063b3c1fe4f146104a9578063b5bd3eb9146104d4578063b6826724146104ff576101cd565b80639579fad7146103ff5780639a7827921461043c578063a0ed3ac514610467576101cd565b80635eb7413a1161016457806389158d8e1161013e57806389158d8e1461036b5780638cd4426d146103945780638d8f2adb146103bd5780638da5cb5b146103d4576101cd565b80635eb7413a146102fb578063715018a61461033d5780638456cb5914610354576101cd565b8063454aa669116101a0578063454aa6691461023f578063502aa3b514610268578063537d10cd146102a55780635c975abb146102d0576101cd565b8063046f7da2146101d25780631f68f20a146101e9578063451c3d8014610214576101cd565b366101cd57005b600080fd5b3480156101de57600080fd5b506101e761068c565b005b3480156101f557600080fd5b506101fe6106dd565b60405161020b91906118e2565b60405180910390f35b34801561022057600080fd5b506102296106e3565b604051610236919061197c565b60405180910390f35b34801561024b57600080fd5b50610266600480360381019061026191906119c8565b610709565b005b34801561027457600080fd5b5061028f600480360381019061028a91906119c8565b61079e565b60405161029c9190611a16565b60405180910390f35b3480156102b157600080fd5b506102ba6107dd565b6040516102c79190611a4c565b60405180910390f35b3480156102dc57600080fd5b506102e56107f0565b6040516102f29190611a4c565b60405180910390f35b34801561030757600080fd5b50610322600480360381019061031d9190611a93565b610803565b60405161033496959493929190611ac0565b60405180910390f35b34801561034957600080fd5b5061035261084c565b005b34801561036057600080fd5b50610369610860565b005b34801561037757600080fd5b50610392600480360381019061038d9190611b21565b6108b1565b005b3480156103a057600080fd5b506103bb60048036038101906103b69190611b61565b610bc1565b005b3480156103c957600080fd5b506103d2610d0e565b005b3480156103e057600080fd5b506103e9610f59565b6040516103f69190611a16565b60405180910390f35b34801561040b57600080fd5b5061042660048036038101906104219190611a93565b610f82565b60405161043391906118e2565b60405180910390f35b34801561044857600080fd5b50610451611078565b60405161045e91906118e2565b60405180910390f35b34801561047357600080fd5b5061047c61107e565b60405161048991906118e2565b60405180910390f35b34801561049e57600080fd5b506104a761113a565b005b3480156104b557600080fd5b506104be6112f1565b6040516104cb91906118e2565b60405180910390f35b3480156104e057600080fd5b506104e96112f7565b6040516104f691906118e2565b60405180910390f35b34801561050b57600080fd5b506105146112fd565b60405161052191906118e2565b60405180910390f35b34801561053657600080fd5b5061053f611303565b60405161054c9190611bc2565b60405180910390f35b34801561056157600080fd5b5061057c60048036038101906105779190611b61565b611329565b005b34801561058a57600080fd5b506105a560048036038101906105a09190611c09565b611470565b005b3480156105b357600080fd5b506105bc6114cc565b6040516105c991906118e2565b60405180910390f35b3480156105de57600080fd5b506105e76114d2565b6040516105f491906118e2565b60405180910390f35b34801561060957600080fd5b50610624600480360381019061061f9190611a93565b6114d8565b60405161063191906118e2565b60405180910390f35b34801561064657600080fd5b50610661600480360381019061065c9190611c36565b611529565b005b34801561066f57600080fd5b5061068a60048036038101906106859190611a93565b611584565b005b61069461160a565b6000600a60006101000a81548160ff0219169083151502179055507f4fa122af292061f0c0ecc4ddb825cb8c03df17fca008fb7e8fd43c519d60660760405160405180910390a1565b60045481565b600260009054906101000a900473ffffffffffffffffffffffffffffffffffffffff1681565b61071161160a565b80471015610754576040517f08c379a000000000000000000000000000000000000000000000000000000000815260040161074b90611ce6565b60405180910390fd5b3373ffffffffffffffffffffffffffffffffffffffff166108fc829081150290604051600060405180830381858888f1935050505015801561079a573d6000803e3d6000fd5b5050565b600b81815481106107ae57600080fd5b906000526020600020016000915054906101000a900473ffffffffffffffffffffffffffffffffffffffff1681565b600c60009054906101000a900460ff1681565b600a60009054906101000a900460ff1681565b600e6020528060005260406000206000915090508060000154908060010154908060020160009054906101000a900460ff16908060030154908060040154908060050154905086565b61085461160a565b61085e6000611691565b565b61086861160a565b6001600a60006101000a81548160ff0219169083151502179055507f51bd770c2b635efdffcc64ac0fd7ab9e459e21f6823fb6140afea01a8834544760405160405180910390a1565b6108b9611755565b600a60009054906101000a900460ff1615610909576040517f08c379a000000000000000000000000000000000000000000000000000000000815260040161090090611d52565b60405180910390fd5b6000821161094c576040517f08c379a000000000000000000000000000000000000000000000000000000000815260040161094390611dbe565b60405180910390fd5b600081148061095b5750600181145b61099a576040517f08c379a000000000000000000000000000000000000000000000000000000000815260040161099190611e2a565b60405180910390fd5b6000600e60003373ffffffffffffffffffffffffffffffffffffffff1673ffffffffffffffffffffffffffffffffffffffff1681526020019081526020016000206000015403610a4857600b339080600181540180825580915050600190039060005260206000200160009091909190916101000a81548173ffffffffffffffffffffffffffffffffffffffff021916908373ffffffffffffffffffffffffffffffffffffffff1602179055505b600260009054906101000a900473ffffffffffffffffffffffffffffffffffffffff1673ffffffffffffffffffffffffffffffffffffffff166323b872dd3330856040518463ffffffff1660e01b8152600401610aa793929190611e4a565b6020604051808303816000875af1158015610ac6573d6000803e3d6000fd5b505050506040513d601f19601f82011682018060405250810190610aea9190611e96565b506000600e60003373ffffffffffffffffffffffffffffffffffffffff1673ffffffffffffffffffffffffffffffffffffffff1681526020019081526020016000209050610b373361179b565b82816000016000828254610b4b9190611ef2565b925050819055508181600101819055504281600301819055503373ffffffffffffffffffffffffffffffffffffffff167fd741e738a23fd18a03a26522320d9fc6cac1fed483e215ea9150fbc2fc43385d8484604051610bac929190611f26565b60405180910390a250610bbd6118b8565b5050565b610bc961160a565b6000829050818173ffffffffffffffffffffffffffffffffffffffff166370a08231306040518263ffffffff1660e01b8152600401610c089190611a16565b602060405180830381865afa158015610c25573d6000803e3d6000fd5b505050506040513d601f19601f82011682018060405250810190610c499190611f64565b1015610c8a576040517f08c379a0000000000000000000000000000000000000000000000000000000008152600401610c8190611ce6565b60405180910390fd5b8073ffffffffffffffffffffffffffffffffffffffff1663a9059cbb33846040518363ffffffff1660e01b8152600401610cc5929190611f91565b6020604051808303816000875af1158015610ce4573d6000803e3d6000fd5b505050506040513d601f19601f82011682018060405250810190610d089190611e96565b50505050565b610d16611755565b600a60009054906101000a900460ff1615610d66576040517f08c379a0000000000000000000000000000000000000000000000000000000008152600401610d5d90611d52565b60405180910390fd5b6000600e60003373ffffffffffffffffffffffffffffffffffffffff1673ffffffffffffffffffffffffffffffffffffffff16815260200190815260200160002090506000816000015411610df0576040517f08c379a0000000000000000000000000000000000000000000000000000000008152600401610de790612006565b60405180910390fd5b8060020160009054906101000a900460ff1615610e42576040517f08c379a0000000000000000000000000000000000000000000000000000000008152600401610e3990612072565b60405180910390fd5b610e4b3361179b565b60008160000154905060008260000181905550600260009054906101000a900473ffffffffffffffffffffffffffffffffffffffff1673ffffffffffffffffffffffffffffffffffffffff1663a9059cbb33836040518363ffffffff1660e01b8152600401610ebb929190611f91565b6020604051808303816000875af1158015610eda573d6000803e3d6000fd5b505050506040513d601f19601f82011682018060405250810190610efe9190611e96565b503373ffffffffffffffffffffffffffffffffffffffff167f6352c5382c4a4578e712449ca65e83cdb392d045dfcf1cad9615189db2da244b82604051610f4591906118e2565b60405180910390a25050610f576118b8565b565b60008060009054906101000a900473ffffffffffffffffffffffffffffffffffffffff16905090565b600080600e60008473ffffffffffffffffffffffffffffffffffffffff1673ffffffffffffffffffffffffffffffffffffffff16815260200190815260200160002090506000816000015403610fdf578060040154915050611073565b6000816003015442610ff19190612092565b90506000600183600101541461100857600161100c565b6005545b90508260020160009054906101000a900460ff161561103657600654816110339190611ef2565b90505b8060045484600001548461104a91906120c6565b61105491906120c6565b61105e91906120c6565b836004015461106d9190611ef2565b93505050505b919050565b60075481565b6000805b600b80549050811015611136576000600b82815481106110a5576110a4612108565b5b9060005260206000200160009054906101000a900473ffffffffffffffffffffffffffffffffffffffff1690506000600e60008373ffffffffffffffffffffffffffffffffffffffff1673ffffffffffffffffffffffffffffffffffffffff16815260200190815260200160002090508060000154846111259190611ef2565b935050508080600101915050611082565b5090565b611142611755565b600a60009054906101000a900460ff1615611192576040517f08c379a000000000000000000000000000000000000000000000000000000000815260040161118990611d52565b60405180910390fd5b6000600e60003373ffffffffffffffffffffffffffffffffffffffff1673ffffffffffffffffffffffffffffffffffffffff1681526020019081526020016000209050600081600001541161121c576040517f08c379a000000000000000000000000000000000000000000000000000000000815260040161121390612183565b60405180910390fd5b8060020160009054906101000a900460ff161561126e576040517f08c379a0000000000000000000000000000000000000000000000000000000008152600401611265906121ef565b60405180910390fd5b6112773361179b565b60018160020160006101000a81548160ff0219169083151502179055503373ffffffffffffffffffffffffffffffffffffffff167f32a314a40af01d00d73606908591876da56620b9aa91c925409ee989f745af6782600401546040516112de91906118e2565b60405180910390a2506112ef6118b8565b565b60065481565b600d5481565b60055481565b600360009054906101000a900473ffffffffffffffffffffffffffffffffffffffff1681565b61133161160a565b600073ffffffffffffffffffffffffffffffffffffffff168273ffffffffffffffffffffffffffffffffffffffff16036113a0576040517f08c379a00000000000000000000000000000000000000000000000000000000081526004016113979061225b565b60405180910390fd5b6000600e60008473ffffffffffffffffffffffffffffffffffffffff1673ffffffffffffffffffffffffffffffffffffffff1681526020019081526020016000206000015411611425576040517f08c379a000000000000000000000000000000000000000000000000000000000815260040161141c906122c7565b60405180910390fd5b80600e60008473ffffffffffffffffffffffffffffffffffffffff1673ffffffffffffffffffffffffffffffffffffffff168152602001908152602001600020600501819055505050565b61147861160a565b80600c60006101000a81548160ff0219169083151502179055507f15dfde9dc452642ad95d6040663b2cca8bdd970d144ae1f8a5fa25bf4a703a96816040516114c19190611a4c565b60405180910390a150565b60095481565b60085481565b600080600e60008473ffffffffffffffffffffffffffffffffffffffff1673ffffffffffffffffffffffffffffffffffffffff16815260200190815260200160002090508060000154915050919050565b61153161160a565b8260048190555081600581905550806006819055507f166d075947243ef2e519b0dfaecca5976a13160add40a14180b0be361f1308218282604051611577929190611f26565b60405180910390a1505050565b61158c61160a565b600073ffffffffffffffffffffffffffffffffffffffff168173ffffffffffffffffffffffffffffffffffffffff16036115fe5760006040517f1e4fbdf70000000000000000000000000000000000000000000000000000000081526004016115f59190611a16565b60405180910390fd5b61160781611691565b50565b6116126118c1565b73ffffffffffffffffffffffffffffffffffffffff16611630610f59565b73ffffffffffffffffffffffffffffffffffffffff161461168f576116536118c1565b6040517f118cdaa70000000000000000000000000000000000000000000000000000000081526004016116869190611a16565b60405180910390fd5b565b60008060009054906101000a900473ffffffffffffffffffffffffffffffffffffffff169050816000806101000a81548173ffffffffffffffffffffffffffffffffffffffff021916908373ffffffffffffffffffffffffffffffffffffffff1602179055508173ffffffffffffffffffffffffffffffffffffffff168173ffffffffffffffffffffffffffffffffffffffff167f8be0079c531659141344cd1fd0a4f28419497f9722a3daafe3b4186f6b6457e060405160405180910390a35050565b600260015403611791576040517f3ee5aeb500000000000000000000000000000000000000000000000000000000815260040160405180910390fd5b6002600181905550565b6000600e60008373ffffffffffffffffffffffffffffffffffffffff1673ffffffffffffffffffffffffffffffffffffffff168152602001908152602001600020905060008160000154036117f057506118b5565b60008160030154426118029190612092565b90506000600183600101541461181957600161181d565b6005545b90508260020160009054906101000a900460ff161561184757600654816118449190611ef2565b90505b60008160045485600001548561185d91906120c6565b61186791906120c6565b61187191906120c6565b905080600d60008282546118859190611ef2565b92505081905550808460040160008282546118a09190611ef2565b92505081905550428460030181905550505050505b50565b60018081905550565b600033905090565b6000819050919050565b6118dc816118c9565b82525050565b60006020820190506118f760008301846118d3565b92915050565b600073ffffffffffffffffffffffffffffffffffffffff82169050919050565b6000819050919050565b600061194261193d611938846118fd565b61191d565b6118fd565b9050919050565b600061195482611927565b9050919050565b600061196682611949565b9050919050565b6119768161195b565b82525050565b6000602082019050611991600083018461196d565b92915050565b600080fd5b6119a5816118c9565b81146119b057600080fd5b50565b6000813590506119c28161199c565b92915050565b6000602082840312156119de576119dd611997565b5b60006119ec848285016119b3565b91505092915050565b6000611a00826118fd565b9050919050565b611a10816119f5565b82525050565b6000602082019050611a2b6000830184611a07565b92915050565b60008115159050919050565b611a4681611a31565b82525050565b6000602082019050611a616000830184611a3d565b92915050565b611a70816119f5565b8114611a7b57600080fd5b50565b600081359050611a8d81611a67565b92915050565b600060208284031215611aa957611aa8611997565b5b6000611ab784828501611a7e565b91505092915050565b600060c082019050611ad560008301896118d3565b611ae260208301886118d3565b611aef6040830187611a3d565b611afc60608301866118d3565b611b0960808301856118d3565b611b1660a08301846118d3565b979650505050505050565b60008060408385031215611b3857611b37611997565b5b6000611b46858286016119b3565b9250506020611b57858286016119b3565b9150509250929050565b60008060408385031215611b7857611b77611997565b5b6000611b8685828601611a7e565b9250506020611b97858286016119b3565b9150509250929050565b6000611bac82611949565b9050919050565b611bbc81611ba1565b82525050565b6000602082019050611bd76000830184611bb3565b92915050565b611be681611a31565b8114611bf157600080fd5b50565b600081359050611c0381611bdd565b92915050565b600060208284031215611c1f57611c1e611997565b5b6000611c2d84828501611bf4565b91505092915050565b600080600060608486031215611c4f57611c4e611997565b5b6000611c5d868287016119b3565b9350506020611c6e868287016119b3565b9250506040611c7f868287016119b3565b9150509250925092565b600082825260208201905092915050565b7f496e73756666696369656e742062616c616e6365000000000000000000000000600082015250565b6000611cd0601483611c89565b9150611cdb82611c9a565b602082019050919050565b60006020820190508181036000830152611cff81611cc3565b9050919050565b7f506f6f6c20697320706175736564000000000000000000000000000000000000600082015250565b6000611d3c600e83611c89565b9150611d4782611d06565b602082019050919050565b60006020820190508181036000830152611d6b81611d2f565b9050919050565b7f416d6f756e74206d7573742062652067726561746572207468616e207a65726f600082015250565b6000611da8602083611c89565b9150611db382611d72565b602082019050919050565b60006020820190508181036000830152611dd781611d9b565b9050919050565b7f496e76616c6964206c6f636b2074797065000000000000000000000000000000600082015250565b6000611e14601183611c89565b9150611e1f82611dde565b602082019050919050565b60006020820190508181036000830152611e4381611e07565b9050919050565b6000606082019050611e5f6000830186611a07565b611e6c6020830185611a07565b611e7960408301846118d3565b949350505050565b600081519050611e9081611bdd565b92915050565b600060208284031215611eac57611eab611997565b5b6000611eba84828501611e81565b91505092915050565b7f4e487b7100000000000000000000000000000000000000000000000000000000600052601160045260246000fd5b6000611efd826118c9565b9150611f08836118c9565b9250828201905080821115611f2057611f1f611ec3565b5b92915050565b6000604082019050611f3b60008301856118d3565b611f4860208301846118d3565b9392505050565b600081519050611f5e8161199c565b92915050565b600060208284031215611f7a57611f79611997565b5b6000611f8884828501611f4f565b91505092915050565b6000604082019050611fa66000830185611a07565b611fb360208301846118d3565b9392505050565b7f4e6f20746f6b656e7320746f2077697468647261770000000000000000000000600082015250565b6000611ff0601583611c89565b9150611ffb82611fba565b602082019050919050565b6000602082019050818103600083015261201f81611fe3565b9050919050565b7f43616e6e6f7420776974686472617720626f6f7374656420746f6b656e730000600082015250565b600061205c601e83611c89565b915061206782612026565b602082019050919050565b6000602082019050818103600083015261208b8161204f565b9050919050565b600061209d826118c9565b91506120a8836118c9565b92508282039050818111156120c0576120bf611ec3565b5b92915050565b60006120d1826118c9565b91506120dc836118c9565b92508282026120ea816118c9565b9150828204841483151761210157612100611ec3565b5b5092915050565b7f4e487b7100000000000000000000000000000000000000000000000000000000600052603260045260246000fd5b7f4e6f20746f6b656e73206c6f636b656400000000000000000000000000000000600082015250565b600061216d601083611c89565b915061217882612137565b602082019050919050565b6000602082019050818103600083015261219c81612160565b9050919050565b7f416c726561647920626f6f737465640000000000000000000000000000000000600082015250565b60006121d9600f83611c89565b91506121e4826121a3565b602082019050919050565b60006020820190508181036000830152612208816121cc565b9050919050565b7f496e76616c696420757365722061646472657373000000000000000000000000600082015250565b6000612245601483611c89565b91506122508261220f565b602082019050919050565b6000602082019050818103600083015261227481612238565b9050919050565b7f5573657220686173206e6f206c6f636b656420746f6b656e7300000000000000600082015250565b60006122b1601983611c89565b91506122bc8261227b565b602082019050919050565b600060208201905081810360008301526122e0816122a4565b905091905056fea2646970667358221220819d3217002d22aa09fcfb3977987dc8787fd4f6677ed13348038688395293af64736f6c634300081b0033",
  "linkReferences": {},
  "deployedLinkReferences": {}
}